:100000000C9482000C94AA000C94AA000C94AA00F0
:100010000C94AA000C94AA000C94AA000C94AA00B8
:100020000C94AA000C94AA000C94AA000C94AA00A8
:100030000C94AA000C94AA000C94AA000C94AA0098
:100040000C9437060C94AA000C94AA000C94AA00F5
:100050000C94AA000C94AA000C94AA000C94AA0078
:100060000C94AA000C94AA0005A84CCDB2D44EB9A9
:100070003836A9020C50B9918688083CA6AAAA2A4B
:10008000BE000000803F0000000023002600290081
:1000900000000000250028002B00040404040404D0
:1000A0000404020202020202030303030303010227
:1000B00004081020408001020408102001020408F6
:1000C00010200045FF0000000000000000000000BC
:1000D00000000045FF0000000000000000000000DC
:1000E0000000000000000000000000000000000010
:1000F0000000000000000000000000000000000000
:100100000000CE0611241FBECFEFD8E0DEBFCDBF6A
:1001100011E0A0E0B1E0E8E0FCE102C005900D9242
:10012000A633B107D9F723E0A6E3B1E001C01D92E1
:10013000A130B207E1F710E0C2E8D0E004C0219797
:10014000FE010E94FC0DC138D107C9F70E94FA06D2
:100150000C94FE090C94000080E991E00895539AF4
:100160000895FC011186089526E9FC012187089570
:1001700080E090E00895FC01858596850895CF93F1
:10018000DF9300D000D000D0CDB7DEB7AB011C822A
:100190001D821E82DC01ED91FC910190F081E02D29
:1001A00019821A821B829E012F5F3F4FBE016C5F36
:1001B0007F4F099526960FB6F894DEBF0FBECDBFD0
:1001C000DF91CF9108954F925F926F927F928F92BD
:1001D000AF92BF92CF92EF92FF920F931F93CF9364
:1001E000DF933C01EB010E940606F301278530896D
:1001F000621B730B6A307105B0F3F894E881F981E2
:100200005BB158608BB1877F8BB96A859F81262F40
:10021000291B922F2F83BF844A805B807D85FC84BD
:10022000EE847F5FF394E3943E814885A984CB8478
:100230001181D20120E0C32F022F322F31811127EB
:1002400088943111390F08F43FEF9195889470FD2F
:10025000130F1795889471FD130F1795889472FDED
:10026000130F1795889473FD130F1795889474FDD9
:10027000130F1795889475FD130F1795889476FDC5
:10028000130F1795889477FD130F17958894232FD4
:100290007111212F960F122F002C5BB900C000C0E6
:1002A00017FF8BB930812227889400C0002C8BB9AE
:1002B00031113C0F00C0002C5BB900C000C016FF1C
:1002C0008BB908F43FEFC195889400C0002C8BB91E
:1002D000F0FC230F00C0002C5BB900C000C015FF6C
:1002E0008BB927958894F1FC230F00C0002C8BB9A3
:1002F0002795889400C0002C5BB900C000C014FF93
:100300008BB9F2FC230F2795889400C0002C8BB981
:10031000F3FC230F00C0002C5BB900C000C013FF2A
:100320008BB927958894F4FC230F00C0002C8BB95F
:100330002795889400C0002C5BB900C000C012FF54
:100340008BB9F5FC230F2795889400C0002C8BB93E
:10035000F6FC230F00C0002C5BB900C000C011FFE9
:100360008BB927958894F7FC230F00C0002C8BB91C
:100370002795889400C0002C5BB900C000C010FF16
:100380008BB9132FF110122FCA0D00C0002C8BB99E
:1003900000C000C0002C5BB900C000C017FF8BB9C3
:1003A00032812227889400C0002C8BB93111340F80
:1003B00000C0002C5BB900C000C016FF8BB908F468
:1003C0003FEFEB0DF11D00C0002C8BB9E0FC230FBB
:1003D00000C0002C5BB900C000C015FF8BB9279589
:1003E0008894E1FC230F00C0002C8BB927958894DA
:1003F00000C0002C5BB900C000C014FF8BB9E2FC48
:10040000230F2795889400C0002C8BB9E3FC230FA1
:1004100000C0002C5BB900C000C013FF8BB927954A
:100420008894E4FC230F00C0002C8BB92795889496
:1004300000C0002C5BB900C000C012FF8BB9E5FC06
:10044000230F2795889400C0002C8BB9E6FC230F5E
:1004500000C0002C5BB900C000C011FF8BB927950C
:100460008894E7FC230F00C0002C8BB92795889453
:1004700000C0002C5BB900C000C010FF8BB9132F67
:10048000E110122F419500C0002C8BB94C0D00C01B
:1004900000C05BB900C000C017FF8BB931812227B3
:1004A000889400C0002C8BB93111390F00C0002C8A
:1004B0005BB900C000C016FF8BB908F43FEF9195FF
:1004C000889400C0002C8BB970FD230F00C0002C55
:1004D0005BB900C000C015FF8BB92795889471FDEA
:1004E000230F00C0002C8BB92795889400C0002CE6
:1004F0005BB900C000C014FF8BB972FD230F2795B4
:10050000889400C0002C8BB973FD230F00C0002C11
:100510005BB900C000C013FF8BB92795889474FDA8
:10052000230F00C0002C8BB92795889400C0002CA5
:100530005BB900C000C012FF8BB975FD230F279572
:10054000889400C0002C8BB976FD230F00C0002CCE
:100550005BB900C000C011FF8BB92795889477FD67
:10056000230F00C0002C8BB92795889400C0002C65
:100570005BB900C000C010FF8BB9132F7111122F8F
:10058000960F00C0002C8BB9119709F086CE20EE93
:1005900031E0D2010E94E10DDC01CB01F4E0B6951F
:1005A000A79597958795FA95D1F720E030E0A901B6
:1005B0006AE9469E040C411D569E400D511D1124B2
:1005C000450D511D840F951FA11DB11D893E43E0AE
:1005D0009407A105B10508F434C0885E9340A109D1
:1005E000B10942E0B695A795979587954A95D1F7B9
:1005F00047E0849F080E211D949F200D311D11247A
:10060000290F311D6091360170E0860F971F820F10
:10061000931F4091370150913801609139017091D9
:100620003A01292F3327420F531F611D711D40933B
:100630003701509338016093390170933A018093E8
:10064000360178940E940606F301708B6787DF916C
:10065000CF911F910F91FF90EF90CF90BF90AF90EF
:100660008F907F906F905F904F9008950F931F939E
:10067000CF93DF93CDB7DEB762970FB6F894DEBFA6
:100680000FBECDBF8C01F901DC011C968C917A83E1
:1006900069835C834B835E834D8390819D879181C9
:1006A0009E8792819F87813029F4CE0101960E9416
:1006B000810606C01C861B861A86198618861F822C
:1006C00083E0888B1A8A198AD801ED91FC91048401
:1006D000F585E02DBE016F5F7F4FC80109956296D9
:1006E0000FB6F894DEBF0FBECDBFDF91CF911F9143
:1006F0000F9108950F931F93CF93DF93CDB7DEB77C
:1007000062970FB6F894DEBF0FBECDBF8C01F90122
:10071000DC011C968C917A8369835C834B835E83B6
:100720004D8390819D8791819E8792819F878130A3
:1007300029F4CE0101960E94810606C01C861B8604
:100740001A86198618861F82188A1A8A198AD80169
:10075000ED91FC910484F585E02DBE016F5F7F4F24
:10076000C801099562960FB6F894DEBF0FBECDBFE3
:10077000DF91CF911F910F9108958F929F92AF9229
:10078000BF92CF92DF92EF92FF920F931F93CF937E
:10079000DF93EC010E942B062C813D81032E000C7F
:1007A000440B550B0E94330ACA01B9010E94CC0BBD
:1007B0000E949F0C20E030E048ED52E40E94320C91
:1007C0002985273928F4C22ED12CE12CF12C05C023
:1007D00026E9C22ED12CE12CF12C0E94960B9B0114
:1007E000AC01A3E2B0E00E94200AA70196010E949A
:1007F000010ACA01B9016B5F7F4F8F4F9F4F0E9463
:10080000CE0B0E949D0B6093850268856F5F6887A1
:10081000EF8040E050E0F5E5F12C00EFEBEA8FE0EF
:10082000D82E362F3F71330F330F330F132F2F2F47
:10083000129F010E10E0111D1124212F862F8074AC
:10084000762F707267FD1EC0811109C0711103C03F
:10085000912F90950FC02B5A70E09BEA35C0711113
:100860000EC01AEA319F030E30E0311D11249E2F75
:10087000931B2655992309F48DC070E025C0812F64
:10088000809583C0811111C071110BC02AEA329F7B
:10089000030E30E0311D11248E2F831B25E5230F1D
:1008A00074C0712F7095812F0AC0711104C085E545
:1008B000810F7E2F03C08AEA810F7F2F711B88234F
:1008C00009F466C0982F20E0392F309F030E30E0E6
:1008D000311D822F972F882341F0282F209F020E51
:1008E00020E0211D792F822F01C0792F772331F04D
:1008F000272F209F020E20E0211D01C020E011249F
:100900007D2D779F070E70E0711D1124DA01A55C23
:10091000BE4F370F3C93870F11968C931197270F7B
:1009200012962C936E0D4D5F5F4F4E3381E058074A
:1009300009F077CFCE80D12CE12CF12C0E94060655
:100940004B015C01C114D104E104F10441F10E94A6
:100950000606DC01CB0188199909AA09BB09883E62
:100960009340A105B10570F311E0C11AD108E10867
:10097000F10828EE820E23E0921EA11CB11CC114C6
:10098000D104E104F10419F7DDCF922F30E0A3CFB9
:1009900030E0ACCF30E02111A1CF80E0B0CFDF91CB
:1009A000CF911F910F91FF90EF90DF90CF90BF906C
:1009B000AF909F908F900895FC01A281B3818C919C
:1009C00096812681982381E0921380E00895FC01AE
:1009D00096810280F381E02D8081282F30E0892FDD
:1009E00090E0809590958223932380830895FC0165
:1009F00096810280F381E02D8081892B8083089588
:100A0000DC0117962C91179730E0F901E255FF4F62
:100A1000E4911696EC93169726563F4FF901849170
:100A2000E82FF0E0EE0FFF1FE057FF4F8591949104
:100A300013969C938E931297F9012491E22FF0E084
:100A4000EE0FFF1FEA57FF4F8591949115969C93E7
:100A50008E93149708952F923F924F925F926F92C8
:100A60007F928F929F92AF92BF92CF92DF92EF923E
:100A7000FF920F931F93CF93DF93CDB7DEB72997E4
:100A80000FB6F894DEBF0FBECDBF898749835A8366
:100A90006B837C830091CB021091CC02ADE74A2E90
:100AA000512C612C712C0115110509F46FC0D8016E
:100AB000ED91FC910084F185E02DC80109951C01A0
:100AC000F801A281B3811296C12CD12C7601812C20
:100AD000912C540120E030E0A9010097A9F0FD011C
:100AE00032976081260F311D411D511D3196608165
:100AF000860E911CA11CB11C6C91C60ED11CE11C70
:100B0000F11C01971396E9CFA0E5B0E00E94200AFE
:100B10006D837E838F839887A7E3B0E0A50194015E
:100B20000E94200A4B015C01ABE4B0E0A7019601F2
:100B30000E94200A472F582F692F7727F5E0F29D52
:100B40009001F39D300D11248D819E81AF81B88578
:100B5000C92EDA2EEB2EFF24C20ED31EE11CF11C8F
:100B60004C0C5D1C6E1C7F1C892C9A2CAB2CBB245E
:100B7000480C591C6A1C7B1C440E551E661E771EB1
:100B8000D80114960D911C9115978DCFB985CB2E58
:100B9000D12CE12CF12CA3019201C701B6010E94D6
:100BA000BD0D872E982EA92EBB2489819A81AB81F9
:100BB000BC8188169906AA06BB0660F0A7019601BB
:100BC000BC01CD010E94BD0DA50194010E94330A14
:100BD000822F01C0898529960FB6F894DEBF0FBE1B
:100BE000CDBFDF91CF911F910F91FF90EF90DF90DC
:100BF000CF90BF90AF909F908F907F906F905F90BD
:100C00004F903F902F9008950E94910B3FB7F8941A
:100C10008091940290919502A0919602B0919702D2
:100C200026B5A89B05C02F3F19F00196A11DB11D47
:100C30003FBFBA2FA92F982F8827820F911DA11D82
:100C4000B11DBC01CD0142E0660F771F881F991FBF
:100C50004A95D1F708952FB7F894609137017091B4
:100C600038018091390190913A012FBF08951F9268
:100C70000F920FB60F9211242F933F938F939F9350
:100C8000AF93BF938091370190913801A0913901C2
:100C9000B0913A013091930223E0230F2D3720F4D5
:100CA0000196A11DB11D05C026E8230F0296A11DC6
:100CB000B11D209393028093370190933801A09344
:100CC0003901B0933A018091940290919502A091DC
:100CD0009602B09197020196A11DB11D80939402D6
:100CE00090939502A0939602B0939702BF91AF9113
:100CF0009F918F913F912F910F900FBE0F901F905A
:100D00001895EF92FF920F931F93CF93DF93EC010F
:100D1000909192029F5F292F27702093920290FF5B
:100D200002C090E801C090E021FD9064247009F0B9
:100D3000906220E1290FFE013C967E018FE0E80ED3
:100D4000F11C00E011E06191662331F070E0C80110
:100D50000E94CD0D6F5F01C060E0DF0114976C93BE
:100D6000322F369F030E30E0311D1124CF0107973B
:100D7000311103C0EC01188203C03150EC013883FB
:100D8000662311F061506C93EE15FF05E1F6DF91DB
:100D9000CF911F910F91FF90EF9008958FEF809367
:100DA0008502109287021092860210929102109290
:100DB00090028FEF9FEFDC0180938C0290938D0265
:100DC000A0938E02B0938F0222EC30E080E090E09E
:100DD000F9014591559165917491FC01E353FD4FE3
:100DE0006083518342832C5F3F4F0396803391058C
:100DF00079F70895CF93DF93CDB7DEB76A970FB633
:100E0000F894DEBF0FBECDBF789484B5826084BDF8
:100E100084B5816084BD85B5826085BD85B58160FE
:100E200085BD80916E00816080936E00109281007C
:100E30008091810082608093810080918100816037
:100E400080938100809180008160809380008091F8
:100E5000B10084608093B1008091B0008160809384
:100E6000B00080917A00846080937A0080917A004B
:100E7000826080937A0080917A00816080937A000A
:100E800080917A00806880937A001092C1008091EE
:100E9000AB02811145C010929D0210929C028FEF0F
:100EA0008093A0028093A1028093A2028093A30268
:100EB0008093A4028093A50281E08093A602109201
:100EC000A8021092A70210929F0210929E02809197
:100ED000CB029091CC02892B31F48AE992E0909375
:100EE000CC028093CB02E0919802F0919902309766
:100EF00021F08AE992E0958384838AE992E09093D5
:100F00009902809398021092AA021092A9028EE18F
:100F100091E090939B0280939A0281E08093AB02D0
:100F2000E0919A02F0919B020480F581E02D8AE91C
:100F300092E009958BE391E090939D0280939C024F
:100F40008EE690E09093A8028093A702E0919A0227
:100F5000F0919B020284F385E02D8AE992E00995E5
:100F6000009729F19C0140E050E060E472E48FE0DA
:100F700090E00E94010A722F632F00918802109165
:100F8000890220918A0230918B02872F962FDA01F5
:100F900080179107A207B30710F4D901C801809305
:100FA000880290938902A0938A02B0938B028AE010
:100FB00090E00E94640AFC018AE090E093838283BF
:100FC00080E391E0918380838BE59DE39583848327
:100FD00084E1868392E097839E012F5F3F4F6901F2
:100FE000D9011D928A95E9F7FA83E98385E090E0BB
:100FF0000E94640AFC01D182C08281E08483128253
:101000001382F093CA02E093C90281E480937C00CA
:1010100080917A00806480937A0080917A0086FDC6
:10102000FCCF609178008091790070E0782B072EDA
:10103000000C880B990B611571058105910511F064
:101040000E94F50988EE482E83E0582E612C712C01
:1010500088248394EBE2F5E0F0939102E093900210
:1010600084EC99E0A0E0B0E080938C0290938D0234
:10107000A0938E02B0938F02F09085028091880237
:1010800090918902A0918A02B0918B02892B8A2BC0
:101090008B2BE9F00E9406060091B9021091BA026A
:1010A0002091BB023091BC02DC01CB01801B910B73
:1010B000A20BB30B009188021091890220918A0241
:1010C00030918B0280179107A207B307B8F20E94F4
:1010D00006066093B9027093BA028093BB029093A4
:1010E000BC02E0919002F0919102309759F040914A
:1010F0008C0250918D0260918E0270918F028F2D23
:101100000995F82E0091CB021091CC028F2D90E022
:10111000A0E0B0E08F8B988FA98FBA8F01151105D1
:1011200009F466C0D8011C969C901C978091860299
:10113000909187028436910510F41C961C92D80178
:10114000ED91FC91228133813E8B2D8B19821A8285
:101150001B82F11017C0D8011D964D915C911E970E
:1011600012966D917C9113979601C801ED89FE89C5
:101170000995D8011C969C921C9714960D911C9170
:101180001597CCCFF801399656011801BCE02B0E0B
:10119000311CDF011397EC902191EE2011F12223F5
:1011A00001F1822F90E0A0E0B0E09C01AD012F5F43
:1011B0003F4F4F4F5F4F6F89788D898D9A8D0E9479
:1011C000BD0D9B01AC018E2D90E0A0E0B0E0BC0114
:1011D000CD016F5F7F4F8F4F9F4F0E94BD0DD50197
:1011E0008C93BFEFAB1ABB0AE215F30591F6B3CFB0
:1011F0008091B7029091B8028C010F5F1F4F10933E
:10120000B8020093B70249978CF10E942B069B010C
:10121000AC01E8EEF3E00E9FB0010F9F700D1E9F32
:10122000700D1124072E000C880B990BE090B3026F
:10123000F090B4020091B5021091B6022E193F0948
:10124000400B510B0E94330A309387022093860291
:101250001092B8021092B7020E942B066093B3025C
:101260007093B4028093B5029093B602E091C902E4
:10127000F091CA02208191818281E22FF92FE80F3B
:10128000F11DE80FF11D00811181D801ED91FC9154
:101290000190F081E02DC80109958091C102811172
:1012A00013C0F801028113810E942B06A301920151
:1012B0000E94330A3093BE022093BD021093C002F5
:1012C0000093BF028092C1020E942B06A3019201EB
:1012D0000E94330A8091BD029091BE02281B390BF7
:1012E0008091BF029091C0022817390718F10E941F
:1012F0002B06A30192010E94330A3093BE02209371
:10130000BD02E091C902F091CA0282818F5F82839F
:10131000138220819181E22FF92FE80FF11DE80F50
:10132000F11D0190F081E02D828193819093C002A4
:101330008093BF0220E030E0232B09F48BCE0E9483
:10134000000086CE8F929F92AF92BF92CF92DF9293
:10135000EF92FF92CF93DF93EC01688179818A81CC
:101360009B81611571058105910521F464E279ED98
:101370008BE597E02DE133EF41E050E00E94010A58
:1013800049015A019B01AC01A7EAB1E40E94200A7D
:101390006B017C01ACEEB4EFA50194010E942E0A12
:1013A000DC01CB018C0D9D1DAE1DBF1DB7FF03C021
:1013B0000197A109B04888839983AA83BB83BC01A4
:1013C000CD019F77DF91CF91FF90EF90DF90CF908D
:1013D000BF90AF909F908F9008950E94A2090895AA
:1013E00080E091E00E94A20908956093000170934B
:1013F000010180930201909303010895F8940C94E5
:10140000020E052E97FB1EF400940E94180A57FD49
:1014100007D00E94330A07FC03D04EF40C94180A3C
:1014200050954095309521953F4F4F4F5F4F089510
:1014300090958095709561957F4F8F4F9F4F089540
:101440000E94550AA59F900DB49F900DA49F800DFA
:10145000911D11240895B7FF0C94200A0E94200AC0
:10146000821B930B0895A1E21A2EAA1BBB1BFD0140
:101470000DC0AA1FBB1FEE1FFF1FA217B307E40773
:10148000F50720F0A21BB30BE40BF50B661F771FCB
:10149000881F991F1A9469F76095709580959095AB
:1014A0009B01AC01BD01CF010895A29FB001B39F84
:1014B000C001A39F700D811D1124911DB29F700D5D
:1014C000811D1124911D0895CF93DF9382309105E2
:1014D00010F482E090E0E091FF02F091000320E040
:1014E00030E0C0E0D0E0309711F1408151814817E1
:1014F0005907C0F04817590761F4828193812097FA
:1015000019F09B838A832BC0909300038093FF0282
:1015100026C02115310519F04217530718F49A0116
:10152000BE01DF01EF010280F381E02DDCCF211548
:10153000310509F1281B390B2430310590F412963E
:101540008D919C9113976115710521F0FB01938397
:10155000828304C0909300038093FF02FD013296C2
:1015600044C0FD01E20FF31F819391932250310992
:101570002D933C933AC02091FD023091FE02232B23
:1015800041F420910601309107013093FE0220932F
:10159000FD0220910401309105012115310541F42E
:1015A0002DB73EB74091080150910901241B350B1E
:1015B000E091FD02F091FE02E217F307A0F42E1B6A
:1015C0003F0B2817390778F0AC014E5F5F4F2417A7
:1015D000350748F04E0F5F1F5093FE024093FD0207
:1015E0008193919302C0E0E0F0E0CF01DF91CF91D1
:1015F00008950F931F93CF93DF93009709F48CC046
:10160000FC013297138212820091FF0210910003B5
:101610000115110581F420813181820F931F2091E2
:10162000FD023091FE022817390779F5F093FE028A
:10163000E093FD0271C0D80140E050E0AE17BF0753
:1016400050F412962D913C911397AD01211531055F
:1016500009F1D901F3CF9D01DA013383228360813F
:101660007181860F971F8217930769F4EC01288117
:101670003981260F371F2E5F3F4F318320838A81A8
:101680009B8193838283452B29F4F0930003E0939D
:10169000FF0242C01396FC93EE931297ED0149911D
:1016A00059919E01240F351FE217F30771F48081D1
:1016B0009181840F951F029611969C938E9382813F
:1016C000938113969C938E931297E0E0F0E0D801FB
:1016D00012968D919C911397009719F0F8018C0147
:1016E000F6CF8D919C9198012E5F3F4F820F931FF3
:1016F0002091FD023091FE022817390769F43097D6
:1017000029F4109200031092FF0202C01382128289
:101710001093FE020093FD02DF91CF911F910F9174
:10172000089581E090E0F8940C94020E0E949D0BC5
:101730006894B1110C942C0C08950E94110C88F03F
:101740009F5798F0B92F9927B751B0F0E1F0660F85
:10175000771F881F991F1AF0BA95C9F714C0B130C6
:1017600091F00E942B0CB1E008950C942B0C672F84
:10177000782F8827B85F39F0B93FCCF386957795F5
:101780006795B395D9F73EF49095809570956195DE
:101790007F4F8F4F9F4F0895E89409C097FB3EF409
:1017A00090958095709561957F4F8F4F9F4F9923AE
:1017B000A9F0F92F96E9BB279395F695879577952C
:1017C0006795B795F111F8CFFAF4BB0F11F460FFEC
:1017D0001BC06F5F7F4F8F4F9F4F16C0882311F044
:1017E00096E911C0772321F09EE8872F762F05C058
:1017F000662371F096E8862F70E060E02AF09A95F3
:10180000660F771F881FDAF7880F9695879597F9E7
:10181000089557FD9058440F551F59F05F3F71F0E0
:101820004795880F97FB991F61F09F3F79F0879547
:101830000895121613061406551FF2CF4695F1DFD0
:1018400008C0161617061806991FF1CF8695710560
:10185000610508940895E894BB2766277727CB0194
:1018600097F908950E94450C0C94E90C0E94B00C65
:1018700038F00E94B70C20F0952311F00C94A70CBF
:101880000C94AD0C11240C942C0C0E94090C70F3D8
:10189000959FC1F3950F50E0551F629FF001729F15
:1018A000BB27F00DB11D639FAA27F00DB11DAA1F24
:1018B000649F6627B00DA11D661F829F2227B00D71
:1018C000A11D621F739FB00DA11D621F839FA00DFC
:1018D000611D221F749F3327A00D611D231F849F4C
:1018E000600D211D822F762F6A2F11249F575040A3
:1018F0009AF0F1F088234AF0EE0FFF1FBB1F661F1E
:10190000771F881F91505040A9F79E3F510580F0E6
:101910000C94A70C0C942C0C5F3FE4F3983ED4F38A
:10192000869577956795B795F795E7959F5FC1F78A
:10193000FE2B880F911D9695879597F908959F9393
:101940000E94C00C0F9007FCEE5F0C94FA0C97F904
:101950009F6780E870E060E008959FEF80EC089555
:1019600000240A941616170618060906089500247E
:101970000A94121613061406050608950C94AD0C6D
:101980000E94110CD8F3E894E0E0BB279F57F0F0D9
:101990002AED3FE049EC06C0EE0FBB0F661F771F34
:1019A000881F28F0B23A62077307840728F0B25AFA
:1019B000620B730B840BE3959A9572F7803830F4C1
:1019C0009A95BB0F661F771F881FD2F790480C941B
:1019D000760D092E0394000C11F4882352F0BB0FEE
:1019E00040F4BF2B11F460FF04C06F5F7F4F8F4F37
:1019F0009F4F0895EF93E0FF07C0A2EA2AED3FE072
:101A000049EC5FEB0E941F0D0E94E90C0F900394BC
:101A100001FC9058E8E6F0E00C94820D0E94B00CB6
:101A200038F00E94B70C20F039F49F3F19F426F4E7
:101A30000C94AD0C0EF4E095E7FB0C94A70CE92F89
:101A40000E94090C58F3BA176207730784079507B9
:101A500020F079F4A6F50C942B0C0EF4E0950B2EE7
:101A6000BA2FA02D0B01B90190010C01CA01A001F0
:101A70001124FF27591B99F0593F50F4503E68F14B
:101A80001A16F040A22F232F342F4427585FF3CF8C
:101A9000469537952795A795F0405395C9F77EF45D
:101AA0001F16BA0B620B730B840BBAF09150A1F0A6
:101AB000FF0FBB1F661F771F881FC2F70EC0BA0F2C
:101AC000621F731F841F48F4879577956795B795B4
:101AD000F7959E3F08F0B0CF9395880F08F09927AF
:101AE000EE0F9795879508959F3F31F0915020F420
:101AF000879577956795B795880F911D96958795EA
:101B000097F908959F938F937F936F93FF93EF932C
:101B10009B01AC010E94320CEF91FF910E94960D47
:101B20002F913F914F915F910C94320CDF93CF93A3
:101B30001F930F93FF92EF92DF927B018C016894C9
:101B400006C0DA2EEF010E94450CFE01E894A59133
:101B50002591359145915591A6F3EF010E941F0DF6
:101B6000FE019701A801DA9469F7DF90EF90FF90EA
:101B70000F911F91CF91DF910895DB018F939F9378
:101B80000E94200ABF91AF91A29F800D911DA39F3B
:101B9000900DB29F900D1124089597FB072E16F417
:101BA000009407D077FD09D00E94E80D07FC05D00E
:101BB0003EF4909581959F4F0895709561957F4F64
:101BC00008950E94550AB7FF0895821B930B08954C
:101BD000AA1BBB1B51E107C0AA1FBB1FA617B70753
:101BE00010F0A61BB70B881F991F5A95A9F780956F
:101BF0009095BC01CD010895EE0FFF1F0590F49163
:081C0000E02D0994F894FFCFD8
:101C0800010000000000010380000000000004063D
:101C180004060406BF00BB00B800000000007A03F9
:101C28003603AF00BF00BB00AC00E30000000000BB
:061C3800BD03B400B10081
:00000001FF
